:04000000FEEFFFF020
:020000040001F9
:10FFAD000A036E0350012402241200AD0EF66EFFFB
:10FFBD000EF76E010EF86E0900F5C408F50001E8A4
:10FFCD00EFFFF0050E056E05C5BEF41F0E066E069D
:10FFDD00C5C6F4080E076E07C5BFF407C501F506C3
:10FFED00C502F50550D7ECFFF0046EFEEFFFF0DC17
:03FFFD00EFFFF023
:020000040020DA
:10000000FF0FFF0FFF0FFF0FFF0FFF0FFF0FFF0F80
:10001000FF0FFF0FFF0FFF0FFF0FFF0FFF0FFF0F70
:10002000FF0FFF0FFF0FFF0FFF0FFF0FFF0FFF0F60
:10003000FF0FFF0FFF0FFF0FFF0FFF0FFF0FFF0F50
:020000040030CA
:08000000FFFFFFFF9FFFFFFF60
:01000900FFF7
:00000001FF
